:020000040800F2
:10000000E442002029610008295B0008335B0008F6
:100010003D5B0008475B0008515B0008C293FDAFE1
:10002000000000000000000000000000C5580008AB
:100030005B5B0008000000005D5900088D4100086E
:100040001761000805610008F3600008E16000081E
:10005000CF600008BD600008AB6000089960000830
:10006000876000087560000863600008216200086E
:100070000B620008F5610008DF610008C961000833
:10008000B36100089D610008516000083F600008EE
:100090002D6000081B60000809600008F75F000879
:1000A000E55F0008D35F0008C15F0008AF5F00088C
:1000B0009D5F00088B5F0008795F0008675F00089C
:1000C000555F0008435F0008315F00081F5F0008AC
:1000D0000D5F0008FB5E0008E95E0008D75E0008BF
:1000E000C55E0008B35E0008A15E00088F5E0008D0
:1000F0007D5E00086B5E0008595E0008655B0008C5
:10010000475E0008355E0008235E0008115E0008A7
:10011000FF5D0008ED5D0008DB5D0008C95D0008BB
:10012000B75D0008A55D0008935D0008815D0008CB
:100130006F5D00085D5D00084B5D0008395D0008DB
:10014000275D0008155D0008035D0008F15C0008EC
:10015000DF5C0008CD5C0008BB5C0008A95C0008FF
:10016000975C0008855C0008735C0008615C00080F
:100170004F5C00083D5C00082B5C0008195C00081F
:10018000075C0008F55B0008E35B0008D15B000832
:10019000BF5B0008AD5B00089B5B0008895B000843
:1001A000D13F0008775B00083940000870B51E4653
:1001B00003680446BDF910505B6B984723683146CD
:1001C00020469A6B9047236829462046DB6BBDE8A2
:1001D0007040184781807047C180704770B50368D0
:1001E00004461546DB6A98472368294620461B6B60
:1001F000BDE87040184701817047418170477047E2
:100200007047704770477047C388D21A8388C91AED
:10021000036812B209B210B45DF8044B5B6D184765
:100220001220704770477047A0F10400FBE7704749
:1002300010B50446102110F04DFC204610BDA0F171
:100240000400F5E70022C1608260044A10B502F1A3
:10025000080420320460426010BD00BF2010010875
:10026000806800F04BB9704770477047704770471F
:10027000B0F8FE10B0F80431C06BCB1A59425941A6
:10028000FFF7EEBF10B504464FF4F47110F022FCF6
:10029000204610BD10B5044600F008FB014B204677
:1002A000236010BD541001087047704710B5044614
:1002B0004FF4C47110F00EFC204610BD10B504467A
:1002C00000F09EFC014B2046236010BD8C100108FD
:1002D0007047A0F10400FBE7704710B504461021F9
:1002E00010F0F8FB204610BDA0F10400F5E7000077
:1002F0000022C1608260044A10B502F10804203275
:100300000460426010BD00BFB81001087047A0F142
:100310000400FBE7704710B50446102110F0DAFB2B
:10032000204610BDA0F10400F5E700000022C160E6
:100330008260044A10B502F1080420320460426071
:1003400010BD00BFE41001087047704710B50446A7
:100350004FF40C7110F0BEFB204610BD10B50446E2
:1003600000F078FE014B2046236010BD18110108F3
:100370007047704710B504464FF4C47110F0AAFBE3
:10038000204610BD10B5044601F030F8014B204660
:10039000236010BD4C1101087047A0F10400FBE779
:1003A000704710B50446102110F094FB204610BD94
:1003B000A0F10400F5E700000022C1608260044A59
:1003C00010B502F1080420320460426010BD00BF85
:1003D000781101087047A0F10400FBE7704710B5E1
:1003E0000446102110F076FB204610BDA0F1040059
:1003F000F5E700000022C1608260044A10B502F1F6
:10040000080420320460426010BD00BFA41101083E
:100410007047704710B504464FF4C47110F05AFB92
:10042000204610BD10B5044601F074F9014B20467A
:10043000236010BDD811010800221223012110B53C
:10044000044602600271C360084604F03DFA024BA4
:100450001860204610BD00BFA8080020C16070478A
:1004600038B50D46144606F01DFF10F063FC10F081
:100470006BFC621B013290FBF2F303FB1200284479
:1004800038BD10B5044643223721FFF7E9FF60610C
:1004900010BD000007B503795BB101238DF807306B
:1004A000054B186828B100230DF107011A4604F026
:1004B00037FA03B05DF804FB7409002013B500237C
:1004C00002A904460C4801F8013D1A46006804F0F0
:1004D00085FB012802D12046FFF7DCFFA3683B2BF8
:1004E00003D80133A36002B010BD00232068A360CD
:1004F00003689B689847F6E7A80800200171FFF79A
:10050000C9BF7047A0F10400FBE7704710B504466F
:10051000102110F0DFFA204610BDA0F10400F5E72D
:100520000022C1608260044A10B502F10804203242
:100530000460426010BD00BF04120108704770479C
:1005400010B504464FF4C47110F0C4FA204610BD33
:1005500010B5044601F072FA014B2046236010BD2D
:10056000381201087047704710B504464FF4A8715F
:1005700010F0B0FA204610BD10B50446D0F84C017A
:10058000FFF79CFF2046BDE810400BF0F9BF10B507
:100590000446D0F8340158B10368DB68984738B195
:1005A000D4F8340103689B6898470023C4F83431B9
:1005B00010BD000010B5044601F00CFE014B2046B2
:1005C000236010BD6C1201087047A0F10400FBE726
:1005D000704710B50446102110F07CFA204610BD7B
:1005E000A0F10400F5E78368C068D96800F086B818
:1005F0000022C1608260044A10B502F1080424326E
:100600000460426010BD00BFA01201088068FFF7BF
:1006100025BF10B5C4688068FFF733FF0146204648
:10062000BDE8104000F052B810B583680446C068B9
:10063000D96800F063F82046BDE81040FFF7E9BF35
:10064000A0F10400FFF7F0BF704770477047704794
:100650007047000038B504460D46C06BFFF7D6FF63
:100660002B4604F51C70054A03210DF0F7FF04F535
:100670000070BDE838400CF098BF00BF0C130108B3
:1006800010B5D0F80031044699420CDDBC223C2163
:1006900009200DF0F1FFC4F8600204F50E70BDE80A
:1006A00010400CF082BFAFBFFF220922BC201146D0
:1006B000A4BF11461046ECE710B5044602F068FCF2
:1006C000014B2046236010BD1813010838B50446BD
:1006D0000D460B46084A032100F276200DF0BEFFBE
:1006E0002368204629461B6B984704F50E70BDE829
:1006F00038400CF05ABF00BF0C13010838B504464F
:100700000D46D03009F084FC2B4604F51C70054AD8
:1007100003210DF0A3FF04F50070BDE838400CF094
:1007200044BF00BF0C130108044B10B5044640F849
:10073000D03B09F06CFC204610BD00BFD812010868
:1007400010B50446FFF7F0FF4FF42C71204610F06F
:10075000C1F9204610BD0000034B10B504460360EC
:10076000FFF7E2FF204610BD1813010810B504463C
:10077000FFF7F2FF4FF42C71204610F0ABF9204642
:1007800010BD4FF6FF738381038443841368C361F4
:100790001060704790F825201AB190F8242002B11B
:1007A00018607047094A026000228280C28002817C
:1007B00042818281C2810282428242618261C2613F
:1007C00080F82420012280F82520704790400108FD
:1007D00070477047704710B4C268836812F0010F09
:1007E00040684FEA620218BF8458104418BFE358AB
:1007F0005DF8044B184743682BB183682BB9C06878
:1008000000F001007047184670470120704710B58E
:1008100004464FF4F47110F05DF9204610BD10B598
:100820000446102110F056F9204610BD00F19C033B
:10083000994210B5044605D10BF0DEFFBDE810402B
:1008400001F01EBD00F1D003994219D190F82D316D
:1008500000F59A7083F0010300F8073C90F825300A
:1008600083F0010380F825300CF09FFE04F58470BE
:100870000CF09BFE23682046DB6ABDE81040184759
:1008800010BD000038B504460D46FFF78BFF064B40
:100890002046294623604FF6FF73E38484F828300E
:1008A0000AF055FF204638BD203901082DE9F04FE8
:1008B00004468DB000250DF03DF9A346A94BE56334
:1008C0000CAE4BF8403B5846FFF76CFFA64B4FF67B
:1008D000FF7A4FF0FF09236404F1700326F804AD9A
:1008E000314684F866901846A56604F5B07884F819
:1008F0006C5004F5CE770293FFF7C4FF04F19C031C
:1009000018460393FFF74EFF4FF00103C4F8C4509D
:1009100084F8C030954B84F8C850C4F89C3004F17A
:10092000D003A4F8CAA0A4F8CCA0184684F8CEA09E
:1009300004930AF04DFB04F584733146ADF82CA006
:1009400018460593FFF79EFF04F59A733146ADF8FC
:100950002CA018460693FFF795FF31464046ADF8A8
:100960002CA0FFF78FFF824BC4F88C513146C4F89E
:1009700060313846A4F890A1A4F892A184F894516B
:1009800084F8955184F8965184F8975184F89851D9
:100990000793ADF82CA0FFF775FF079B2A46C4F814
:1009A000C8512946C4F89C315846724BA4F8CCA1D2
:1009B000C4F8D831704BA4F8CEA14FF0140AC4F893
:1009C000E0314FF4887384F8D05184F8D15184F821
:1009D000D25184F8D35184F8D451C4F8E45100932F
:1009E0004FF4F073C4F8DC41FFF7E0FB4A46494698
:1009F00048460DF041FE2A46A066294602984FF06F
:100A00003209FFF7EBFB052331460298ADF82C3095
:100A10000AF09DFE4B460398CDF80090CC224FF48F
:100A2000CD71FFF7C3FB32460AA90398ADF828A0A1
:100A3000ADF82CA00AF082FD04F5EC730498CDF813
:100A40000090CD2207931721C4F8C4304B46FFF71E
:100A5000ADFB162332460AA9ADF8283019230498B5
:100A6000A4F80431ADF82C300AF068FD079B44224D
:100A700005981221C4F8F830FFF7B0FB1A2384F868
:100A80002D5131460598ADF82C300AF060FE442215
:100A900006981221FFF7A2FB1B2331460698ADF8FA
:100AA0002C300AF054FE4046C8226A21FFF796FB1C
:100AB0000422404603210AF0EDFB514640460AF06D
:100AC000F5FB4FF001030AAA0DF127018DF828303C
:100AD00040468DF82C3033468DF827500AF02CFB19
:100AE00038461022A521FFF779FB1122384606214E
:100AF0000AF0D0FB384604210AF0D8FB4FF001037E
:100B00008DF82750251D0AAA8DF828308DF82C3035
:100B10000DF12701334638460AF00EFB59462846A8
:100B200009F034F90299284609F030F9039928466A
:100B300009F02CF90499284609F028F90599284666
:100B400009F024F90699284609F020F9414628467B
:100B500009F01CF92846394609F018F920460DB06D
:100B6000BDE8F08F6C1301080C38010878380108D3
:100B7000E0360108541301082D080008704770473B
:100B800010B4C268836812F0010F40684FEA620235
:100B900018BF8458104418BFE3585DF8044B184739
:100BA00043682BB183682BB9C06800F0010070471F
:100BB000184670470120704710B504464FF4C471C1
:100BC0000FF088FF204610BD10B5044610210FF02D
:100BD00081FF204610BD08B500F1A803994205D158
:100BE0000BF00AFEBDE8084001F02ABBDC30814270
:100BF00005D10BF001FEBDE8084001F031BB08BD96
:100C00002DE9F04F04468DB000250CF093FFA0466F
:100C10009E4B4FF6FF7B0CAEDFF888A204F16C0709
:100C2000E5634FF0FF0948F8403B404626F804BD15
:100C3000FFF7B8FD3146C4F840A0A4F866B04046BE
:100C400084F868B00AF083FD3846ADF82CB0FFF7A1
:100C5000A9FD3146C4F86CA0A4F892B0384684F8D7
:100C600094B04FF0010A0AF072FD894BC4F8985015
:100C7000E36604F1A803A4F89CB0A4F89EB018465B
:100C800084F8A05084F8A15084F8A25084F8A350AE
:100C900084F8A4500393FFF785FD7E4BC4F8D05031
:100CA000C4F8A830059304F1DC0384F8D45084F828
:100CB000CCA01846A4F8D6B0A4F8D8B084F8DAB01E
:100CC0000493FFF76FFD059BC4F80451C4F8DC30B2
:100CD00004F5887384F8085184F800A11846A4F834
:100CE0000AB1A4F80CB184F80EB10593FFF75AFDD0
:100CF000694BA4F836B1C4F81031079304F5A27318
:100D0000C4F83851A4F83C51184684F83EB184F830
:100D10003F5184F8405184F841510693FFF742FD5A
:100D2000079B2A46A4F86AB12946C4F844314046D4
:100D30005A4BC4F86C51C4F87831594BA4F870512F
:100D400084F872B104F5BC7B84F8735184F8745153
:100D500084F87551C4F88031C4F88451C4F87C41DA
:100D6000FFF73CFA052331464046ADF82C300AF037
:100D7000EEFC3846CB226A21FFF730FA04223846CF
:100D800003210AF087FA384614210AF08FFA8DF809
:100D900028A08DF82CA04FF0320A33460AAA0DF194
:100DA000270138468DF827500AF0C6F953460398B4
:100DB000CDF800A0CD221621FFF7F8F91523324611
:100DC0000AA90398ADF82830ADF82C300AF0B6FB2C
:100DD00053460498C4F8D0B0CC22CDF800A04FF40C
:100DE000CD71FFF7E3F9142332460AA90498ADF850
:100DF0002830ADF82C300AF0A1FB8D230598C4F8FB
:100E000004B12322009304214FF4EB73FFF7CEF9D2
:100E10004A46494648460DF02FFCA4F83C51C4F818
:100E200038014FF0090105980AF0FEFA04220698ED
:100E30001146FFF7D3F94A46494648460DF01CFCD7
:100E4000A4F87051251DC4F86C014FF007010698F5
:100E50000AF0EAFA4146284608F098FF3946284643
:100E600008F094FF0399284608F090FF049928465B
:100E700008F08CFF0599284608F088FF2846069957
:100E800008F084FF20460DB0BDE8F08FBC130108C8
:100E9000E03601087838010890370108A4130108EA
:100EA000D70B0008203901087047704710B4C2689A
:100EB000836812F0010F40684FEA620218BF84583D
:100EC000104418BFE3585DF8044B184743682BB132
:100ED00083682BB9C06800F001007047184670475E
:100EE0000120704710B504464FF40C710FF0F2FD6D
:100EF000204610BD10B5044610210FF0EBFD204632
:100F000010BD08B500F16C03994205D10BF074FCDB
:100F1000BDE8084001F0E4B900F1B003994205D101
:100F20000BF06AFCBDE8084001F0BAB900F1F40327
:100F3000994205D10BF060FCBDE8084001F0C0B952
:100F400000F59C73994205D10BF056FCBDE80840B2
:100F500001F0D6B900F5BE70814205D10BF04CFC12
:100F6000BDE8084001F06CB908BD00000022012175
:100F70008280C280028142818281C2810282428259
:100F800042618261C261826280F82C20064A80F848
:100F9000251002604FF6FF7280F82410C285028689
:100FA00080F83220704700BF7838010808B5094B37
:100FB0001B682BB9084BC921084A094802F058FBA5
:100FC000084B02881B889A4203DB074BCA21034A5D
:100FD000F3E708BD283B002034140108FB14010886
:100FE000761401082C3B0020A9140108F8B500F183
:100FF000340706463846FFF7D9FF134BB48E384600
:101000001B6813F81420114B1B6853F82250FFF78C
:10101000CDFF0F4B28461B6853F824702B683946C8
:101020009B6A98472B6804463946DB6B28469847ED
:1010300014FB00F42B683946E4B228465B6A9847F3
:10104000204486F84100F8BD283B0020303B0020BA
:10105000600900202DE9F04F04468DB000260CF009
:1010600069FD0CAD27464FF6FF78BB4BE66304F5F0
:101070009C7A25F8048D294647F8403B3846FFF70F
:1010800001FC04F16C0304F5F27B4FF013091846E0
:1010900003930AF09FFC04F1B003184604930AF08E
:1010A00099FC04F1F403184605930AF093FC5046AA
:1010B0000AF090FC04F5BE7318460693FFF756FF3E
:1010C00004F5D87318460793FFF750FF2946584692
:1010D000ADF82C80FFF7D6FBA04B3246A4F8148263
:1010E000C4F8E43131469E4B3846A4F8168204F524
:1010F0000878C4F820329B4BC4F81062C4F8283238
:1011000084F8186284F8196284F81A6284F81B6201
:1011100084F81C62C4F82442C4F82C62FFF75EF81D
:101120004FF0050329463846ADF82C300AF00FFB86
:101130003C23039813220C210093AA23FFF736F8CF
:101140004FF012032A460AA90398ADF82830ADF8EB
:101150002C900AF0F3F94FF003030398A4F8A030A1
:10116000FFF744FFFF22114610460DF085FAFF22DB
:10117000C4F8A400114610460DF07EFA3C23C4F8D2
:10118000A8006222C4F894800C210093AA2304983A
:10119000FFF70CF84FF012032A460AA90498ADF89D
:1011A0002830ADF82C900AF0C9F94FF004030498E8
:1011B000A4F8E430FFF71AFFFF22114610460DF0A5
:1011C0005BFAFF22C4F8E800114610460DF054FA0D
:1011D0003C23C4F8EC004A46C4F8D8804FF491711F
:1011E0000093AA230598FEF7E1FF4FF012032A4669
:1011F0000AA90598ADF82830ADF82C900AF09EF9B0
:101200004FF005030598A4F82831FFF7EFFEFF2201
:10121000114610460DF030FAFF22C4F82C01114699
:1012200010460DF029FA3C23C4F830016222C4F8BC
:101230001C81504600934FF49171AA23FEF7B6FF2C
:101240004FF012032A460AA95046ADF82830ADF8EF
:101250002C900AF073F9062350464FF03209A4F897
:101260006C31FFF7C3FEFF22114610460DF004FA61
:10127000FF22C4F87001114610460DF0FDF9C4F8C4
:101280006081C4F874014B460698CD22CDF80090D9
:101290001621FEF78BFF15232A460AA90698ADF8FA
:1012A0002830ADF82C300AF049F94B46C4F8A48137
:1012B00007984FF01408CDF80090CC224FF4CD7170
:1012C000FEF774FF2A460AA90798ADF82880ADF802
:1012D0002C800AF033F95846CB226A21FEF77EFFB4
:1012E00004225846032109F0D5FF4146584609F02B
:1012F000DDFF01230AAA0DF127018DF82830584699
:101300008DF82C302B46251D8DF8276009F014FF31
:101310003946284608F03AFD0399284608F036FD7C
:101320000499284608F032FD0599284608F02EFD5C
:101330005146284608F02AFD0699284608F026FD61
:101340000799284608F022FD2846594608F01EFD58
:1013500020460DB0BDE8F08F08140108E036010802
:10136000F0130108030F00087047704710B4C268FB
:10137000836812F0010F40684FEA620218BF845878
:10138000104418BFE3585DF8044B184743682BB16D
:1013900083682BB9C06800F0010070471846704799
:1013A0000120704710B504464FF4C4710FF092FB52
:1013B000204610BD10B5044610210FF08BFB2046CF
:1013C00010BD08B500F16C03994205D10BF014FA79
:1013D000BDE8084000F024BFDC30814205D10BF0AD
:1013E0000BFABDE8084000F02BBF08BD2DE9F04F17
:1013F00004468DB000250CF09DFBA1469F4B4FF697
:10140000FF760CAFE56304F1A00849F8403B48467D
:1014100027F8046DFFF7C6F9994A3946A4F86660C3
:10142000484622644FF0010B84F868604FF0FF0AD1
:1014300003920AF08CF904F16C0318460293FFF74B
:10144000B1F9904BC4F894504046E36684F8985044
:10145000A4F89A60A4F89C6084F89E6084F890B028
:101460000493ADF82C60FFF79DF9039A3946A4F870
:10147000C6604046C4F8A02084F8C8600AF067F946
:10148000814A04F1DC03C4F8CC50C4F8A020A4F8CD
:10149000D0601846A4F8D26084F8D45084F8D550AF
:1014A00084F8D65084F8D75084F8D8500393FFF7C7
:1014B00079F9049BC4F80451C4F8DC3004F588734E
:1014C00084F80851A4F80A611846A4F80C6184F85D
:1014D0000E6184F800B10493FFF764F96B4BA4F834
:1014E0003661C4F81031069304F5A273C4F838517C
:1014F000A4F83C51184684F83E6184F83F5184F8C2
:10150000405184F841510593FFF74CF9069B2A4658
:10151000A4F86A612946C4F8443148465C4BC4F8D3
:101520006C51C4F878315B4BA4F8705184F8726147
:10153000322684F8735184F8745184F87551C4F8D4
:101540008031C4F88451C4F87C41FEF747FE05237E
:1015500039464846ADF82C300AF0F9F8334602987F
:101560000096CC224FF4CD71FEF720FE14233A46AC
:101570000AA90298ADF82830ADF82C30079309F08D
:10158000DDFF04F5BC734046CB226A21C4F89430D9
:101590000693FEF723FE04224046032109F07AFE5B
:1015A000079B4046194609F081FE3B460AAA0DF109
:1015B000270140468DF827508DF828B08DF82CB0C3
:1015C00009F0BAFD334603980096CD221621FEF7A6
:1015D000EDFD15233A460AA90398ADF82830ADF879
:1015E0002C3009F0ABFF069B232204980421C4F899
:1015F00004318D2300934FF4EB73FEF7D7FD524671
:10160000514650460DF038F8A4F83C51C4F8380162
:101610004FF00801049809F007FF042205981146CD
:10162000FEF7DCFD5246514650460DF025F8A4F871
:101630007051251DC4F86C014FF00A01059809F09E
:10164000F3FE4946284608F0A1FB0299284608F017
:101650009DFB4146284608F099FB0399284608F06F
:1016600095FB0499284608F091FB2846059908F057
:101670008DFB20460DB0BDE8F08F00BF4C15010872
:101680002039010878380108E03601089037010850
:1016900034150108C31300087047704710B4C268BE
:1016A000836812F0010F40684FEA620218BF845845
:1016B000104418BFE3585DF8044B184743682BB13A
:1016C00083682BB9C06800F0010070471846704766
:1016D0000120704710B504464FF4C4710FF0FAF9B9
:1016E000204610BD10B5044610210FF0F3F9204636
:1016F00010BD08B500F16C03994205D10BF07CF8E0
:10170000BDE8084000F08CBD00F5A2708142F5D024
:1017100008BD00002DE9F04F04468DB000250CF007
:1017200009FAA046A04B4FF6FF790CAEE56304F131
:10173000A00748F8403B404626F8049DFFF732F8E2
:101740009A4A3146A4F86690404622644FF0010B55
:1017500084F868904FF0FF0A039209F0F8FF04F153
:101760006C0318460293FFF71DF8914BC4F8945090
:101770003846E36684F89850A4F89A90A4F89C90B0
:1017800084F89E9084F890B00693ADF82C90FFF703
:1017900009F8039A3146A4F8C6903846C4F8A02048
:1017A00084F8C89009F0D3FF04F1DC03814AC4F83F
:1017B000CC501846C4F8A020A4F8D090A4F8D29039
:1017C00084F8D45084F8D55084F8D65084F8D75093
:1017D00084F8D8500393FEF7E5FF04F58873764A42
:1017E000A4F80291C4F8DC201846C4F80451A4F807
:1017F000085184F80A9184F80B5184F80C5184F84C
:101800000D5105920493FEF7CDFF059A04F5A273DE
:10181000A4F83691C4F810211846C4F83851A4F839
:101820003C5184F83E9184F83F5184F8405184F84B
:1018300041510593FEF7B6FF069B2A46C4F86C514A
:101840002946C4F8443140465C4B84F87051C4F8D2
:1018500078315B4BA4F87291A4F8749184F8769176
:101860004FF03209C4F88031C4F8845184F868B16B
:10187000C4F87C41FEF7B2FC052331464046ADF882
:101880002C3009F064FF4B460298CDF80090CC2232
:101890004FF4CD71FEF78AFC142332460AA9029850
:1018A000ADF82830ADF82C30079309F047FE04F569
:1018B000BC733846CB226A21C4F894300693FEF7F5
:1018C0008DFC04223846032109F0E4FC079B3846CE
:1018D000194609F0EBFC33460AAA0DF127013846F8
:1018E0008DF827508DF828B08DF82CB009F024FC25
:1018F0008D2303982322042100934FF4EB73FEF70A
:1019000055FC5246514650460CF0B6FEA4F808511C
:10191000C4F804014FF00B01039809F085FD04227F
:1019200004981146FEF75AFC5246514650460CF0B8
:10193000A3FEA4F83C51C4F838014FF00C01049800
:10194000251D09F071FD4B460598CD22CDF800907C
:101950001621FEF72BFC152332460AA90598ADF88F
:101960002830ADF82C3009F0E9FD069B41462846A9
:10197000C4F86C3108F00AFA0299284608F006FA11
:101980003946284608F002FA0399284608F0FEF97D
:101990000499284608F0FAF92846059908F0F6F95E
:1019A00020460DB0BDE8F08F9815010820390108D8
:1019B00078380108E03601089037010880150108E1
:1019C000F31600087047704710B4C268836812F0BD
:1019D000010F40684FEA620218BF8458104418BFD4
:1019E000E3585DF8044B184743682BB183682BB963
:1019F000C06800F00100704718467047012070472A
:101A000010B504464FF4C4710FF064F8204610BDC1
:101A100010B5044610210FF05DF8204610BD08B542
:101A200000F16C03994205D10AF0E6FEBDE80840DA
:101A300000F006BCDC308142F6D008BD2DE9F04F45
:101A400004468DB000250CF075F8A1469F4B4FF66B
:101A5000FF760CAFE56304F1A00849F8403B484627
:101A600027F8046DFEF79EFE994A3946A4F8666091
:101A7000484622644FF0010B84F868604FF0FF0A7B
:101A8000039209F064FE04F16C0318460293FEF71A
:101A900089FE904BC4F894504046E36684F8985011
:101AA000A4F89A60A4F89C6084F89E6084F890B0D2
:101AB0000493ADF82C60FEF775FE039A3946A4F83E
:101AC000C6604046C4F8A02084F8C86009F03FFE14
:101AD000814A04F1DC03C4F8CC50C4F8A020A4F877
:101AE000D0601846A4F8D26084F8D45084F8D55059
:101AF00084F8D65084F8D75084F8D8500393FEF772
:101B000051FE049BC4F80451C4F8DC3004F588731A
:101B100084F80851A4F80A611846A4F80C6184F806
:101B20000E6184F800B10493FEF73CFE6B4BA4F801
:101B30003661C4F81031069304F5A273C4F8385125
:101B4000A4F83C51184684F83E6184F83F5184F86B
:101B5000405184F841510593FEF724FE069B2A4626
:101B6000A4F86A612946C4F8443148465C4BC4F87D
:101B70006C51C4F878315B4BA4F8705184F87261F1
:101B8000322684F8735184F8745184F87551C4F87E
:101B90008031C4F88451C4F87C41FEF71FFB052353
:101BA00039464846ADF82C3009F0D1FD334602984D
:101BB0000096CC224FF4CD71FEF7F8FA14233A4682
:101BC0000AA90298ADF82830ADF82C30079309F037
:101BD000B5FC04F5BC734046CB226A21C4F89430AE
:101BE0000693FEF7FBFA04224046032109F052FB5C
:101BF000079B4046194609F059FB3B460AAA0DF1DE
:101C0000270140468DF827508DF828B08DF82CB06C
:101C100009F092FA334603980096CD221621FEF77A
:101C2000C5FA15233A460AA90398ADF82830ADF84D
:101C30002C3009F083FC069B232204980421C4F86D
:101C400004318D2300934FF4EB73FEF7AFFA524645
:101C5000514650460CF010FDA4F83C51C4F8380130
:101C60004FF00D01049809F0DFFB0422059811469E
:101C7000FEF7B4FA5246514650460CF0FDFCA4F86B
:101C80007051251DC4F86C014FF00E01059809F044
:101C9000CBFB4946284608F079F80299284608F017
:101CA00075F84146284608F071F80399284608F06F
:101CB0006DF80499284608F069F82846059908F057
:101CC00065F820460DB0BDE8F08F00BFE4150108AF
:101CD0002039010878380108E036010890370108FA
:101CE000CC1501081F1A0008704770474160704703
:101CF0007047704701230372704770477047704701
:101D000010B4C268836812F0010F40684FEA6202A3
:101D100018BF8458104418BFE3585DF8044B1847A7
:101D200043682BB183682BB9C06800F0010070478D
:101D3000184670470120704710B4C268836812F0DB
:101D4000010F40684FEA620218BF8458104418BF60
:101D5000E3585DF8044B184743682BB183682BB9EF
:101D6000C06800F0010070471846704701207047B6
:101D7000C268836812F0010F40684FEA620218BF20
:101D80008158104418BFCB58184743682BB183685B
:101D90002BB9C06800F00100704718467047012059
:101DA000704710B504460C210EF094FE204610BD7D
:101DB00010B504464FF4A8710EF08CFE204610BDFD
:101DC00010B5044610210EF085FE204610BD10B55A
:101DD000044610210EF07EFE204610BD10B50446CC
:101DE00010210EF077FE204610BD70B516460C4649
:101DF00005460AF001FD0AF04CFD306810B1036899
:101E0000DB689847306810B103681B6898472868FA
:101E100010B103685B699847206810B103685B687C
:101E20009847286810B103681B689847206820B15C
:101E30000368BDE870409B68184770BD70B50368C3
:101E40000E4614460546DB689847336830461B68E3
:101E50009847214628460BF0CFFF236820461B6990
:101E600098470AF0C9FC0368BDE870409B6A1847B0
:101E70000346084610B4DA6B8A4218D093F8502013
:101E8000032A12D8DFE802F00B0B02020268B3F952
:101E90005610546D002223465DF8044B1847026823
:101EA0000021546DB3F95620F5E701221A725DF84E
:101EB000044B70470346084610B4DA6B8A4218D0C8
:101EC00093F85020032A12D8DFE802F00B0B02022D
:101ED0000268B3F95610546D002223465DF8044B96
:101EE000184702680021546DB3F95620F5E7012226
:101EF0001A725DF8044B7047054B1B7833B1436889
:101F000000F10C011A681846926E1047704700BF26
:101F1000AF3A0020054B1B7833B1436800F10C0148
:101F20001A681846926E1047704700BFAF3A0020FB
:101F3000034B00211A88036852425B6D12B21847A6
:101F4000A63A002010B490F850200B46032A22D85D
:101F5000DFE802F0151A020D1A681049546D0022CC
:101F6000B1F90010184623465DF8044B18470B4A98
:101F700011881A684942546D002209B2F2E71846E6
:101F80005DF8044BFFF7D4BF1A680021546D044A72
:101F9000B2F90020E6E75DF8044B7047A43A002050
:101FA000A63A002010B490F850200B46032A22D8FD
:101FB000DFE802F0151A020D1A681049546D00226C
:101FC000B1F90010184623465DF8044B18470B4A38
:101FD00011881A684942546D002209B2F2E7184686
:101FE0005DF8044BFFF7A4BF1A680021546D044A42
:101FF000B2F90020E6E75DF8044B7047A43A0020F0
:10200000A63A0020294B10B51B78044613B90123CA
:10201000037210BD90F8520094F851300130C0B2F4
:10202000984284F8520018DCB4F9542000210BF0D7
:10203000FFFE82B212F0010315D04FF6FF710028A7
:10204000D8BF0B461344A4F8563094F85030032BF5
:1020500029D8DFE803F01F1F0B0B01232372002395
:1020600084F8523010BDA4F85600EEE7B4F85610CC
:102070000022238AC91A09B2A4F8561004F10C00F0
:102080000BF0C5FA606804F140010368BDE8104038
:10209000DB6F1847B4F856200021638AD21A12B2B7
:1020A000A4F85620EAE701232372EBE7AF3A0020B9
:1020B000294B10B51B78044613B90123037210BDD8
:1020C00090F8520094F851300130C0B2984284F830
:1020D000520018DCB4F9542000210BF0A9FE82B2A2
:1020E00012F0010315D04FF6FF710028D8BF0B4640
:1020F0001344A4F8563094F85030032B29D8DFE865
:1021000003F01F1F0B0B01232372002384F85230AE
:1021100010BDA4F85600EEE7B4F856100022238A4A
:10212000C91A09B2A4F8561004F10C000BF06FFAAA
:10213000606804F140010368BDE81040DB6F184798
:10214000B4F856200021638AD21A12B2A4F856209D
:10215000EAE701232372EBE7AF3A00201FB50C4BEF
:1021600004461B788BB10B4B694640688DE818001C
:1021700018230293012303930368DB6F9847606879
:1021800004F10C0103685B6E984704B010BD00BFFA
:10219000AF3A0020CC1601081FB50C4B04461B7843
:1021A0008BB10B4B694640688DE8180018230293E9
:1021B000012303930368DB6F9847606804F10C0107
:1021C00003685B6E984704B010BD00BFAF3A0020B3
:1021D0008C16010870B504460D4616460AF076FBCB
:1021E0000C4B0020C4F848611C600B4BC4F8300154
:1021F00023600A4BC4F83401C4F83C01C4F8400120
:10220000C4F84401C4F83831C4F84C5101F052F913
:10221000204670BD0C3B002030160108181601083E
:10222000064BC0F83C01C0F840310023C0F84431EF
:1022300000F59C73C0F83431704700BFFD230008DF
:10224000064BC0F83C01C0F840310023C0F84431CF
:1022500000F59C73C0F83431704700BF01270008B7
:10226000064BC0F83C01C0F840310023C0F84431AF
:1022700000F59C73C0F83431704700BF9D280008FA
:10228000064BC0F83C01C0F840310023C0F844318F
:1022900000F59C73C0F83431704700BF95290008E1
:1022A000064BC0F83C01C0F840310023C0F844316F
:1022B00000F59C73C0F83431704700BF8D2A0008C8
:1022C000064BC0F83C01C0F840310023C0F844314F
:1022D00000F59C73C0F83431704700BF852B0008AF
:1022E000064BC0F83C01C0F840310023C0F844312F
:1022F00000F59C73C0F83431704700BF7D2C000896
:10230000064BC0F83C01C0F840310023C0F844310E
:1023100000F59C73C0F83431704700BF01250008F8
:102320002DE9F047804690689A468946036814462E
:10233000089F1B6A9847B0F5F47F05D2294BBD2151
:10234000294A2A4801F094F9606803681B6A984793
:102350000F2803D8264BBE21234AF2E7E068036822
:102360001B6A98470B2803D8224BBF211E4AE8E777
:10237000524649464046FFF738FDE06800210368B1
:102380005B6A9847054620B10023436003721A4BED
:102390000360A068002103685B6A9847064608B19D
:1023A000FDF778FF6068002103685B6A9847044680
:1023B00010B13146FDF746FFCAF80050C9F8004099
:1023C000C8F800605CB1231D3B603046A7602A4618
:1023D000F4632146FFF732FD2046BDE8F08723462F
:1023E000F2E700BF04170108032001089217010853
:1023F000C5170108681801086C16010807B5D0F860
:102400004C3100F598710093044BD0F848210448F2
:10241000FFF786FF03B05DF804FB00BF083B002018
:10242000043B00202DE9F047804690689A46894693
:1024300003681446089F1B6A9847B0F5C47F05D20D
:10244000294BBD21294A2A4801F012F96068036826
:102450001B6A98470F2803D8264BBE21234AF2E770
:10246000E06803681B6A98470B2803D8224BBF21FA
:102470001E4AE8E7524649464046FFF7B6FCE06888
:10248000002103685B6A9847054620B1002343603A
:1024900003721A4B0360A068002103685B6A9847C7
:1024A000064608B1FEF754F86068002103685B6ACD
:1024B0009847044610B13146FEF732F8CAF800508A
:1024C000C9F80040C8F800605CB1231D3B6030468D
:1024D000A7602A46F4632146FFF7B0FC2046BDE81A
:1024E000F0872346F2E700BF04170108D91E010850
:1024F00092170108C5170108681801086C16010831
:1025000007B5D0F84C3100F598710093044BD0F822
:1025100048210448FFF786FF03B05DF804FB00BFC5
:10252000083B0020043B002003685B6A184700005A
:10253000044B10B5044640F80C3B08F06BFD2046F8
:1025400010BD00BFE416010810B50446FFF7F0FF08
:10255000582120460EF0BEFA204610BD044B10B59F
:10256000044640F80C3B08F055FD204610BD00BF66
:10257000A416010810B50446FFF7F0FF58212046C5
:102580000EF0A8FA204610BD2DE9F041224B00259F
:102590008046044645600E46057248F80C3B4046AE
:1025A00008F090FD1D4BC4F83C8023641C23646438
:1025B000A364012384F85160E364032384F8525038
:1025C00084F85030164BA4F856501B78D3B1154FF1
:1025D0004046154EB7F90020B6F900302582E38257
:1025E0006582A28208F018FD94F85030032B10D8B1
:1025F000DFE803F00B0D02053B885B4200E03B88FF
:10260000A4F854302046BDE8F0813388F8E73388D9
:10261000F3E701232372F5E7E4160108CC1601085D
:10262000AF3A0020A43A0020A63A00202DE9F04756
:10263000804690689A46894603681446089F1B6A3C
:102640009847B0F5F47F05D2284BBD21284A294888
:1026500001F00EF8606803681B6A98470F2803D8DA
:10266000254BBE21224AF2E7E06803681B6A9847BF
:10267000572803D8214BBF211D4AE8E75246494657
:102680004046FFF7B2FBE068002103685B6A9847A9
:10269000064610B11421FFF777FFA06800210368F8
:1026A0005B6A9847054608B1FDF7F4FD60680021B4
:1026B00003685B6A9847044610B12946FDF7C2FDDE
:1026C000CAF80060C9F80040C8F800505CB1231D8A
:1026D0003B602846A7603246EC632146FFF7AEFB1D
:1026E0002046BDE8F0872346F2E700BF0417010843
:1026F0000121010892170108C5170108681801088F
:1027000007B5D0F84C3100F598710093044BD0F820
:1027100048210448FFF78AFF03B05DF804FB00BFBF
:10272000083B0020043B00202DE9F041224B00250E
:102730008046044645600E46057248F80C3B40460C
:1027400008F0C0FC1D4BC4F83C8023641C23646467
:10275000A364012384F85160E364022384F8525097
:1027600084F85030164BA4F856501B78D3B1154F4F
:102770004046154EB7F90020B6F900302582E382B5
:102780006582A28208F048FC94F85030032B10D8E0
:10279000DFE803F00B0D02053B885B4200E03B885D
:1027A000A4F854302046BDE8F0813388F8E7338838
:1027B000F3E701232372F5E7A41601088C1601083C
:1027C000AF3A0020A43A0020A63A00202DE9F047B5
:1027D000804690689A46894603681446089F1B6A9B
:1027E0009847B0F52C7F05D2274BBD21274A2848B2
:1027F00000F03EFF606803681B6A98470F2803D803
:10280000244BBE21214AF2E7E06803681B6A98471F
:10281000572803D8204BBF211C4AE8E752464946B7
:102820004046FFF7E2FA0021E068FFF77DFE06462A
:1028300010B11421FFF778FFA068002103685B6ADC
:102840009847054608B1FDF737FF60680021036827
:102850005B6A9847044610B12946FDF7C9FECAF8DD
:102860000060C9F80040C8F800505CB1231D3B600F
:102870002846A7603246EC632146FFF7DFFA204680
:10288000BDE8F0872346F2E704170108AB1D0108F5
:1028900092170108C51701086818010807B5D0F894
:1028A0004C3100F598710093044BD0F8482104484E
:1028B000FFF78CFF03B05DF804FB00BF083B00206E
:1028C000043B00202DE9F047804690689A468946EF
:1028D00003681446089F1B6A9847B0F50C7F05D221
:1028E000274BBD21274A284800F0C2FE60680368D4
:1028F0001B6A98470F2803D8244BBE21214AF2E7D0
:10290000E06803681B6A9847572803D8204BBF210B
:102910001C4AE8E7524649464046FFF766FA00215E
:10292000E068FFF701FE064610B11421FFF7FCFE38
:10293000A068002103685B6A9847054608B1FDF767
:102940000DFD6068002103685B6A9847044610B17A
:102950002946FDF7EBFCCAF80060C9F80040C8F84A
:1029600000505CB1231D3B602846A7603246EC63F3
:102970002146FFF763FA2046BDE8F0872346F2E7D9
:10298000041701080B19010892170108C51701085F
:102990006818010807B5D0F84C3100F5987100931C
:1029A000044BD0F848210448FFF78CFF03B05DF8D2
:1029B00004FB00BF083B0020043B00202DE9F0474A
:1029C000804690689A46894603681446089F1B6AA9
:1029D0009847B0F5C47F05D2274BBD21274A284828
:1029E00000F046FE606803681B6A98470F2803D80A
:1029F000244BBE21214AF2E7E06803681B6A98472E
:102A0000572803D8204BBF211C4AE8E752464946C5
:102A10004046FFF7EAF90021E068FFF785FD06462A
:102A200010B11421FFF780FEA068002103685B6AE3
:102A30009847054608B1FDF741FC6068002103682E
:102A40005B6A9847044610B12946FDF751FCCAF865
:102A50000060C9F80040C8F800505CB1231D3B601D
:102A60002846A7603246EC632146FFF7E7F9204687
:102A7000BDE8F0872346F2E704170108571B010859
:102A800092170108C51701086818010807B5D0F8A2
:102A90004C3100F598710093044BD0F8482104485C
:102AA000FFF78CFF03B05DF804FB00BF083B00207C
:102AB000043B00202DE9F047804690689A468946FD
:102AC00003681446089F1B6A9847B0F5C47F05D277
:102AD000274BBD21274A284800F0CAFD60680368DB
:102AE0001B6A98470F2803D8244BBE21214AF2E7DE
:102AF000E06803681B6A9847572803D8204BBF211A
:102B00001C4AE8E7524649464046FFF76EF9002165
:102B1000E068FFF709FD064610B11421FFF704FE37
:102B2000A068002103685B6A9847054608B1FDF775
:102B300079FC6068002103685B6A9847044610B11D
:102B40002946FDF757FCCAF80060C9F80040C8F8EC
:102B500000505CB1231D3B602846A7603246EC6301
:102B60002146FFF76BF92046BDE8F0872346F2E7E0
:102B700004170108811C010892170108C5170108F4
:102B80006818010807B5D0F84C3100F5987100932A
:102B9000044BD0F848210448FFF78CFF03B05DF8E0
:102BA00004FB00BF083B0020043B00202DE9F04758
:102BB000804690689A46894603681446089F1B6AB7
:102BC0009847B0F5C47F05D2274BBD21274A284836
:102BD00000F04EFD606803681B6A98470F2803D811
:102BE000244BBE21214AF2E7E06803681B6A98473C
:102BF000572803D8204BBF211C4AE8E752464946D4
:102C00004046FFF7F2F80021E068FFF78DFC06462A
:102C100010B11421FFF788FDA068002103685B6AEA
:102C20009847054608B1FDF7ADFB606800210368D1
:102C30005B6A9847044610B12946FDF7BDFBCAF808
:102C40000060C9F80040C8F800505CB1231D3B602B
:102C50002846A7603246EC632146FFF7EFF820468E
:102C6000BDE8F0872346F2E704170108311A01088E
:102C700092170108C51701086818010807B5D0F8B0
:102C80004C3100F598710093044BD0F8482104486A
:102C9000FFF78CFF03B05DF804FB00BF083B00208A
:102CA000043B00200022028042808280C280704764
:102CB00070B5036804461546DB6A984723682946C1
:102CC00020465B6EBDE8704018470D2070470E200F
:102CD000704770477047704730B4C468836814F019
:102CE000010F40684FEA640418BF0559204418BF1B
:102CF000EB5830BC184743682BB183682BB9C068C8
:102D000000F001007047184670470120704710B46A
:102D1000C268836812F0010F40684FEA620218BF70
:102D20008458104418BFE3585DF8044B18474368B3
:102D30002BB183682BB9C06800F0010070471846BA
:102D400070470120704710B5044638210DF0C2FECF
:102D5000204610BD10B5044610210DF0BBFE2046E4
:102D600010BD10B5044610210DF0B4FE204610BD74
:102D700010B400F1D0048C4205D1036811465DF80F
:102D8000044BDB6A18475DF8044B704710B400F140
:102D9000D0048C4205D1036811465DF8044B1B6BCF
:102DA00018475DF8044B70479C30884208B505D140
:102DB00009F022FDBDE80840FFF742BA08BD000057
:102DC00010B50446FEF7F2F8044B22881B6813F88E
:102DD0001220034B1B6853F8220010BD283B002033
:102DE000303B002073B5036804460D461E6BC38C50
:102DF00002A820F8043DFFF7E3FF0368DB6A984769
:102E0000291A204609B2B04702B070BD10B5044679
:102E1000FEF7CCF8024B22881B6853F8220010BD45
:102E20006009002010B54FF6FF73C28C04469A4229
:102E300009D02630FFF7EAFF626B01462046BDE865
:102E4000104008F03DBC002010BD00002DE9F04FFF
:102E50004FF6FF73C68C8FB004469E420F464BD090
:102E600000F126052846FFF7ABFF8046002843D037
:102E7000284694F82EA0FEF799F8214B2846B4F87E
:102E80002C901B6894F830B003EB46035E78C6F3D1
:102E90000102C6F381060592FEF788F8A36A94F84A
:102EA0002F000B93174B94F831108DF8296007AE63
:102EB000059A1B688DF8330030468DF83410214692
:102EC0008DF82820CDF824808DF832A0ADF8309010
:102ED0008DF82AB0D3F808800AF011FC2846FFF7D5
:102EE00095FF636B01904046029309AB00933B460C
:102EF00096E8060008F040FE0FB0BDE8F08F00BF76
:102F0000283B0020B03A00202DE9F0414FF6FF7336
:102F1000C78C04469F421BD000F126052846FFF7C8
:102F20004FFF06462846FEF741F82846FFF76EFF9A
:102F3000094B024630461B6803EB47035978336858
:102F4000C1F38101DD69636BAC46BDE8F0416047C8
:102F50000020BDE8F08100BF283B002010B50446EA
:102F6000FDF720FC4FF6FF7200232046E28484F830
:102F70002E20064AA362A38584F82F3084F83030CF
:102F800084F831302260636310BD00BF2422010841
:102F90002DE9F04F04468BB000250AF0CBFDA24688
:102FA000A74BE563FF274AF8403B5046FDF7FAFB85
:102FB00004F17009A34B4FF6FF7B0DF12808A566BD
:102FC0002364484684F86C5004F1D00684F8667097
:102FD00028F804BDFDF7E6FB9B4B4146A4F896B0EC
:102FE0004846236784F898B008F0B1FB04F19C03CD
:102FF00018460293FDF7D6FB4FF00103C4F8C45006
:10300000304684F8C030914B84F8C850C4F89C30E6
:10301000A4F8CAB0A4F8CCB084F8CE7007F052FA85
:1030200004F5E67318460393FDF7BCFB884BA4F840
:10303000F2B14FF0020BC4F8CC3104F50073C4F8C0
:10304000F451A4F8F851184684F8FB5184F8FC5167
:1030500084F8FD5184F8FA710493FFF77FFF04F5BB
:103060000E7318460593FFF779FF7A4B7A4A294683
:10307000C4F880325046794BC4F88C52C4F8883278
:10308000774BC4F898222A46C4F89032C4F8A0328C
:10309000744BC4F89C52C4F8A8324FF48873C4F837
:1030A000AC5200934FF4F073C4F88442C4F89442D5
:1030B000C4F8A442FDF77AF82A46294628460BF0C0
:1030C000DBFA2A46A06629464846FDF787F805231D
:1030D00041464846ADF8243008F039FB2D230298CC
:1030E000CF22B42100936423FDF760F818234246F1
:1030F00008A9ADF8203017230298ADF8243008F065
:103100001DFA04F5207308AA07A93046C4F8C43094
:103110004FF00103ADF81C50ADF820304346ADF838
:1031200024B007F025FA304679220B21FDF756F836
:1031300040F2351300955946019330465B46132201
:1031400007F076F855223046202106F0D7FF3046AA
:10315000202106F05DFF04F5247303980C22C4F8C7
:10316000C83104F528730B21C4F8C431FDF736F8D3
:103170003A46394638460BF07FFA4FF00103C4F85F
:10318000F401A4F8F8311946039808F04DF92E23FC
:1031900004987922009340F27B116523FDF706F82D
:1031A0003A46394638460BF067FAA4F82C52C4F870
:1031B00028022946049808F037F904F51C73A4F88E
:1031C00070520C22C4F83432662305984FF49D7176
:1031D00000939A23FCF7EAFFFA22114610460BF0FF
:1031E0004BFAA4F86452C4F860025946059808F0F6
:1031F0001BF904F27623A4F87652251DC4F86C322C
:103200005146284606F0C2FD4946284606F0BEFD56
:103210000299284606F0BAFD3146284606F0B6FD6A
:103220000399284606F0B2FD0499284606F0AEFD43
:103230002846059906F0AAFD20460BB0BDE8F08FA0
:10324000D81201080C380108203901087838010823
:1032500090370108A0220108712D0008A92D00084F
:10326000B82201088D2D00087047000030B5144DBC
:1032700089B02C78BFF35B8F14F001041DD1284670
:1032800000F0DDF9C8B10F4B1F220F4905930F4B1A
:103290000794049301230694039304230294019357
:1032A000009314230A480AF009FE284600F0C8F9E2
:1032B000084A094906480DF007FC054809B030BD29
:1032C000AC080020B05A0108C49D0108CC50010888
:1032D000BC0800206C0900206932000830B5144D8C
:1032E00089B02C78BFF35B8F14F001041DD1284600
:1032F00000F0A5F9C8B10F4B01220F4905930F4B00
:103300000794049304230694039402940C488DE8D4
:103310000C000B222D230AF0D1FD284600F090F975
:10332000084A094906480DF0CFFB054809B030BDF1
:10333000B008002054480108105A0108948D010873
:10334000DC0800206C0900206932000830B5154DFA
:1033500089B02C78BFF35B8F14F001041ED128468E
:1033600000F06DF9D0B1302301220F4906930F4BC5
:10337000079405930E4B03940493042302940D4881
:103380008DE80C000B224B230AF098FD284600F034
:1033900057F9094A094907480DF096FB054809B055
:1033A00030BD00BFB408002074590108C09D010859
:1033B000E45A0108FC0800206C090020693200086A
:1033C00030B5144D89B02C78BFF35B8F14F0010435
:1033D0001DD1284600F033F9C8B10F4B0620042157
:1033E000052205930D4B07940493032306948DE85F
:1033F0000F000B220A491E230A480AF05FFD2846E7
:1034000000F01EF9084A094906480DF05DFB054821
:1034100009B030BDB8080020AC5A0108584801086E
:10342000249D01081C0900206C0900206932000855
:1034300010B5044620210DF04DFB204610BD70470D
:1034400003290BD8DFE801F002040608FFF70EBFDE
:10345000FFF744BFFFF7B4BFFFF778BF0020704706
:1034600010B5044604210DF035FB204610BD0000C8
:1034700000487047DC2201081C2070470048704754
:103480009CA001080F207047004870473C090020AD
:1034900010B5074CFFF7EAFE2060FFF71FFF6060E2
:1034A000FFF78EFFA060FFF751FFE06010BD00BF87
:1034B0003C09002038B50A4B0A4A18800A4B1A60AA
:1034C000FFF7DCFF0546FFF7DFFF0446FFF7DAFFF3
:1034D000064B1D60064B1C60064B188038BD00BFB4
:1034E0005C090020789F010860090020283B00202B
:1034F000303B00202C3B0020014A024B1A607047F1
:10350000789F01086009002008B50146034B00B10F
:103510000121186807F004FC012008BDB03A002022
:1035200003220021012008B501F0CEF9074A1060FE
:1035300020B100231A46194601F0F2F901210022B8
:10354000084601F0C1F9024B186008BD640900206B
:1035500068090020002303484FF0FF321946006835
:1035600001F03CBB64090020002303481A461946B9
:10357000006801F0D5B900BF6409002000230348AA
:103580001A461946006801F029BB00BF64090020F3
:1035900007B5002302A941F8043D084B186801F063
:1035A000D2FA019B3BB14FF08052054B1A60BFF33A
:1035B0004F8FBFF36F8F03B05DF804FB64090020E9
:1035C00004ED00E00B4B07B5186880B1002302AA98
:1035D000094942F8043D01F04FFA019B3BB14FF01D
:1035E0008052064B1A60BFF34F8FBFF36F8F03B04B
:1035F0005DF804FB680900201000002004ED00E0E5
:1036000070B50023074D084C1A462946206801F082
:10361000E5FA2946206800234FF0FF32BDE87040EC
:1036200001F0DCBA1000002068090020FEE7FEE788
:103630000149002001F09EBE09350008704770471F
:103640007047FEE710F00303074918BFC3F10403F6
:103650000A6818BFC0181318044883423ABF1046BE
:103660000B604FF0FF30704714000020DC3E00205C
:10367000FEE70000024B18680368DB68184700BFCC
:10368000B03A002037B5002402AD204605F8014DC0
:1036900002F0ACFE012122460E4C084601F014F95E
:1036A0002060C82001F0EAFD0023294620681A4660
:1036B00001F094FA0128F4D19DF80730012B05D0D0
:1036C000022BEED1002002F0BFFEEAE7002002F05C
:1036D000B1FEE6E77409002013B50024022021465C
:1036E0008DF8074002F0C2FE012122460A4C08462E
:1036F00001F0EAF8094B1860322001F0BFFD02200A
:1037000002F008FF0128F7D100230DF1070120681E
:103710001A4601F005F9EFE7A8080020700900201B
:103720001FB500F071FD002400F02CFF03230425D9
:1037300040F2DC52009323460F4903940294019413
:103740000E4801F02AFC23464FF400720C49039402
:103750000294019400950B4801F01FFC23464FF49E
:10376000007209490394029401940095074801F0FE
:1037700014FC01F035FCFEE70C2501087536000845
:1037800014250108853600081C250108D9360008D3
:103790004068704741607047521A02EB5302B2FB17
:1037A000F3F07047024B1B68586A00EB400070470B
:1037B00078090020704700000F4B13B51A6C0F4CAE
:1037C00042F0010220461A644FF0FF321B6CE260A7
:1037D00003F0010301934FF0804323600023236132
:1037E000A36063600123636105F068FD204605F076
:1037F000F4FC02B010BD00BF003802407809002080
:1038000010B504460C210DF065F9204610BD10B529
:10381000036804461B6931B19847A26863689B1A24
:103820001844606010BD9847A06010BD704738B55F
:10383000044602F0A9FE054602F0B2FE81B2A8B22B
:1038400003F01EF908B90123237138BD10B50446F1
:1038500008210DF03FF9204610BD70B504798CB0F9
:103860000E4615465CB101A803F062F99DF80430DC
:1038700043B1BDF810303360BDF806302B602046F0
:103880000CB070BD1C46FAE703681B6C1847036850
:103890005B6A1847134A0023F0B5C2F88430BFF3BF
:1038A0004F8FD2F8803043F6E076C3F3C904C3F3F8
:1038B0004E33A5075B0103EA060E284621464EEA71
:1038C0000007013900F14040C2F874724F1CF6D174
:1038D000203B13F1200FEED1BFF34F8FBFF36F8F5B
:1038E000F0BD00BF00ED00E070470000034B044A4C
:1038F00013601A6842F400721A60704700B0024008
:10390000B4090020034B40F2EF101B78002B18BFC6
:1039100000207047F409002010B5044640F6A821A5
:103920000DF0D8F8204610BD2DE9F3470E6880460B
:103930000C46202E00F0A580402E00F0A280321F01
:1039400057425741802E00F09E80A6F580735E425C
:103950005E415F4B1B68986803681B6A9847236841
:103960008246402B00F0A38000F28F80042B00F0F1
:103970009780202B00F09B80BAF1100F4FF00005CC
:103980000CBF4FF002094FF00109E3894FF080624C
:10399000A8F8A43ADFF844814E4B4046C3F888208B
:1039A00003F056FFA289638ABAF1100FC8F80450D9
:1039B0004546A3EB020308BF4FF00208C5F82C9060
:1039C00018BF4FF00108EB602846238AA289C5F88A
:1039D00008809B1AAB62404B2B6003F06AFE0FB964
:1039E000002E35D0237EFF2B17BF022300232B632D
:1039F000237E0CBF2B636B6306B3BAF1100F207EDE
:103A000063695AD103F01F024FF01F0EC3F3C421A4
:103A1000C3F34513C2EB0222C1EB0121C3EB032325
:103A200092FBFEF291FBFEF142EA006242EA0142A1
:103A30003F2193FBF1F342EA03236B63638A002186
:103A4000A28926489B1AC5F81C80AB6103F036FF9B
:103A50000121224803F032FF4FF080621D4B9A6033
:103A6000FFF718FFE289A38907B94EB30093A36853
:103A7000019261681A46194803F069FE02B0BDE878
:103A8000F087012761E7012663E7802B12D0B3F5A9
:103A9000807F7FF471AF4FF009094FF4003574E770
:103AA00010280CBF4FF002094FF00109F5E74FF065
:103AB0000009F2E74FF00A09EFE743EA0063BCE7C9
:103AC00000926168A268054803F022FED6E700BFB5
:103AD000B03A002000E100E000B00240B40900204C
:103AE0003B4B2DE9F0411B6806460C468AB09868AE
:103AF00003681B6A9847E38910280746A6F8A43A8A
:103B000023680CBF4FF002084FF00108082B0ED1BC
:103B100003AD0FCC0FC594E80700336885E80700B4
:103B20005B6C03A9304698470AB0BDE8F081294D87
:103B30004FF08062284B2846C3F8882003F088FEA7
:103B40004FF44033A289102F6B60638AC5F8088058
:103B5000A3EB0203C5F82C80EB604FF00003AB62CF
:103B60001E4B217E2B6063692FD103F01F021F20A3
:103B7000C2EB022292FBF0F5C3F3C42245EA0165D1
:103B8000C3F34513C2EB0222C3EB032392FBF0F213
:103B900045EA02453F2293FBF2F345EA03250D482F
:103BA00003F087FD01210B4803F088FE4FF080628F
:103BB000094B9A60FFF76EFEE289A38929460092BD
:103BC0000448A26803F0A4FDAEE743EA0165E6E716
:103BD000B03A0020B409002000E100E000B002404B
:103BE0002DE9F843424B0D46B1F80C801B68CF8994
:103BF00098680E7E03681B6A984710282A7E6B69B6
:103C000072D103F01F041F21C4EB042494FBF1F4D0
:103C100044EA0262C3F3C424C3F34513C4EB04248F
:103C2000C3EB032394FBF1F442EA04443F2293FBE9
:103C3000F2F344EA0322DFF8C0904FF0806CDFF823
:103C4000BCE0022300243F21CEF888C022F07F424E
:103C500089F8393007EB0847D9F8003010281C6084
:103C6000D9F8003099601C619C61DC615C625C6326
:103C7000A968D9601F491C6141EA0661D96108BF82
:103C800002211A6218BF01215F64AA685A616A8A18
:103C9000A2EB08029A614FF07F4292FAA2F2B2FAC6
:103CA00082F296400E435E625A69DA639A691A6438
:103CB0005A6A5A63CEF808C0FFF7ECFDD9F8002025
:103CC000136823F4403343F400331360D9F8002021
:103CD000136843F40C531360D9F80020136843F0C1
:103CE00001031360BDE8F88343EA0262A3E700BF63
:103CF000B03A002009000100B409002000E100E012
:103D000070B5044600250C300F4B264625726060C6
:103D10006022657246F8203B314607F02BF904F526
:103D20002A6275611C36B242FBD194F8A72A20465C
:103D3000C4F8A05A65F30002A4F8A45A84F8A65A5D
:103D400084F8A72A70BD00BF6C250108012380F804
:103D5000641080F865307047406803681B68184736
:103D600000207047436B0BB10846184770470000AE
:103D7000134A0023F0B5C2F88430BFF34F8FD2F856
:103D8000803043F6E076C3F3C904C3F34E33A5078E
:103D90005B0103EA060E284621464EEA0007013978
:103DA00000F14040C2F874724F1CF6D1203B13F171
:103DB000200FEED1BFF34F8FBFF36F8FF0BD00BF69
:103DC00000ED00E0014B986A704700BF8468014035
:103DD000024B0122996243F8602C704784680140CD
:103DE000064B586CDB6882B2C3F30A0301339A4274
:103DF000A6BFC01A80B20020704700BF0068014013
:103E0000034B902283F85A2383F85823704700BF4E
:103E100000E100E00849094ACB680948C3F30A03F6
:103E2000013B9BB213800A69C2F30A02013A028085
:103E30000B6401234B63704700680140F8090020C0
:103E4000F6090020044B4FF08072C3F888204FF031
:103E50008062C3F88820704700E100E0034B4FF018
:103E600080729A604FF080629A60704700E100E0D3
:103E7000704708B506F0C0FBBDE80840FFF778BF03
:103E800010B5044606F032FF23682046DB6FBDE81C
:103E90001040184708B531B90A4B40F2E7210A4AE9
:103EA0000A48FFF7E5FBC2630032816318BF0122B5
:103EB0000364074900330A7018BF0123054A1370D1
:103EC00008BD00BFD12501083427010809260108D3
:103ED000AE3A0020AF3A0020F8B5541E9DF81850B5
:103EE000A6B21F2E09D80124154FB440154E14F068
:103EF000803F09D114F00B0F17D1134B40F2BF21B3
:103F0000124A1348FFF7B4FB3F88D20834887C4339
:103F1000624381637BB11144C16375B11144016493
:103F20000C4A13700C4B1D70F8BD3C8862433488FA
:103F30000732D210ECE7C363EFE70564F0E700BF98
:103F4000A43A0020A63A0020B4250108E026010882
:103F500009260108AE3A0020AF3A002006F046BB21
:103F600010B5044668210CF0B5FD204610BD0000D8
:103F700030B590F8642090F830309A420F4B1A78A0
:103F80000DD05AB90E4A0F4914880F480C80018889
:103F90000E4D11800122298004801A7030BD002A44
:103FA000FCD00948074A0188084D1180044A14884A
:103FB000118000222C800480EFE700BFA83A002087
:103FC000A43A0020AA3A0020A63A0020AC3A0020E9
:103FD000154B10B59A6BD20724D50122134CDA6326
:103FE000134A196C1288914212D1124A12881A642B
:103FF000226892F85630013382F85630FFF7E2FA21
:10400000206806F073FE0020BDE8104000F03ABBC7
:104010001A64002000F040FB20680368BDE81040EF
:104020009B69184710BD00BF00680140B03A0020EE
:10403000F8090020F6090020084B10B55A689207CD
:104040000BD502229A60FFF793FE054B1B68586858
:104050000368BDE810405B69184710BD00B002401E
:10406000B03A00207047012070475820704758230D
:1040700003FB010008307047582303FB01000830A0
:104080007047012070474FF42C7070474FF42C7329
:1040900003FB0100083070474FF42C7303FB010051
:1040A00008307047012070471020704700EB011066
:1040B0000830704700EB0110083070470846FEF7E3
:1040C000AFB80000034B10B50446036005F0B4FD23
:1040D000204610BDF427010810B50446FFF7F2FF93
:1040E000602120460CF0F6FC204610BD034B10B5B5
:1040F0000446036005F0A0FD204610BDC02701085E
:1041000010B50446FFF7F2FF4FF42E7120460CF075
:10411000E1FC204610BD0000034B10B504460360CF
:1041200005F08AFD204610BD8C27010810B5044615
:10413000FFF7F2FF182120460CF0CCFC204610BD02
:10414000084B10B50446036000F53970FFF7BAFF5D
:1041500004F12C00FFF7CAFF04F11400FFF7DCFFA5
:10416000204610BD2828010810B50446FFF7E8FFD7
:104170004FF4966120460CF0ADFC204610BD10B502
:10418000044604210CF0A6FC204610BD08B503F03F
:1041900081F8044B1B781BB1BDE8084001F010BC4E
:1041A00008BD00BFD919002010B5012392B0022428
:1041B00006934FF4803306A80C9407934FF48003C2
:1041C00010940D9319230E934FF4C8730F93082383
:1041D000119304F077F900B1FEE704F03BF900B168
:1041E000FEE70F230390062101A801934FF4A0538B
:1041F000029404934FF48053059304F03BFB00B109
:10420000FEE712B010BD00002DE9F04300258FB08D
:1042100003F02EF8604CFFF7C7FF02F05DFE02F0DE
:10422000A1FD5C2003F0A8F802F0ECFB02F090FA8C
:10423000019502F0A9F90395029002F0B1F94FF04F
:104240004043049007950A93FF238DF8345006935A
:104250008DF835508DF8365002F096F90B9002F03B
:104260009FF902232A4601A90C9005934FF480631D
:104270004A4808930523099304F0C0F802F09CF91A
:1042800000F0FCF9C4F88450BFF34F8FD4F88030AD
:1042900043F6E076C3F3C900C3F34E3385075B01F1
:1042A00003EA060E294602464EEA0107013A01F1E9
:1042B0004041C4F86072571CF6D1203B13F1200F27
:1042C000EED1BFF34F8F636943F480336361BFF373
:1042D0004F8FBFF36F8FBFF34F8FBFF36F8F0025EB
:1042E000C4F85052636943F400336361BFF34F8FE6
:1042F000BFF36F8F636A4FF00108294E032723F441
:1043000080334FF0104901A86362736823F0010302
:1043100073601B238DF804808DF80C300223CDF8D8
:1043200008908DF805308DF80F708DF813508DF8CA
:1043300012508DF811508DF80E508DF80D508DF8EB
:10434000105003F03DF8172301A88DF804808DF874
:104350000C30CDF808908DF80F708DF813508DF853
:1043600012808DF811508DF805708DF80E508DF873
:104370000D508DF8105003F023F8052343F2D202BC
:104380007360636A43F4803363624FF020431A60C2
:104390000FB0BDE8F08300BF00ED00E0903B0020CF
:1043A00090ED00E02DE9F743614E804689461746BF
:1043B00035781C46BFF35B8F15F0010556D13046AA
:1043C000FFF73DF9002851D0A3B20122594CBDF8A6
:1043D000280084F8452084F84620834284F854203D
:1043E00084F85720544AC4F80480C4F80890E76061
:1043F0002561656125836583A583E58325846584BF
:10440000A58484F82650A562A5856563A563E56348
:10441000256484F8445084F8555084F8565084F844
:10442000585084F8595084F85A5084F85B5084F8F6
:104430005C5025661460414A84F865501380404AF8
:104440001080404A1570404A1380ACBF00230123FE
:104450003E4A84F830303E4B108030462360FFF7F0
:10446000EFF83C4A20463C490CF02EFB314806F060
:1044700085FA3A4FFEF7FCFF0446FEF7FDFF0D9B61
:1044800001460B9A009320460C9B0AF0E3F9344B4B
:10449000344A00201A60FFF70DF833480AF044F957
:1044A0003B78BFF35B8FDB0738D43846FFF7C7F89C
:1044B000002833D02D4E2E4B06F5517806F114000E
:1044C00006F12C0506F539747060B560F460C6F825
:1044D0001080336005F0B2FB264B2846736105F06F
:1044E000ADFB254B2046F36205F0A8FB234B32467B
:1044F00006F29441C6F8E4324046FCF75BF806F257
:104500009440FBF799FF4046FDF78AFE3846FFF7D7
:1045100097F8104A1A4930460CF0D6FA08F06CF9B0
:104520000146044806F06CF9024803B0BDE8F08388
:10453000FC090020000A0020B03A0020A43A002024
:10454000A63A0020A83A0020AA3A0020AC3A00205F
:10455000442601086C090020713E0008680A00200A
:10456000343B0020D8190020180000206C0A0020DD
:10457000282801088C270108C0270108F427010812
:1045800041410008F0B54FF4887385B00026144A05
:1045900000934FF4F073039601250296019611499A
:1045A0001148FFF7FFFE114B044610221D704FF01B
:1045B000404103680095DF6E2B46B84784F8586089
:1045C00084F8466002230A4E84F85430304684F85A
:1045D0004550FFF7F1F8266184F85C5005B0F0BD56
:1045E0001C0F00201C000020240F0020D9190020DF
:1045F000CC19002038B5144C144D224614491548E6
:104600000CF062FA2846FFF77BFB22461249284647
:104610000CF05AFA002511482246114B114903604B
:1046200005710CF051FA10482246104B45601049B4
:10463000856003600CF048FA22460E490E48BDE83A
:1046400038400CF041BA00BF6C090020240F002054
:104650003F34000818000020E93800081C0F002033
:10466000542501082D380008CC1900202C250108FC
:10467000B5370008654000081C000020002001F04C
:10468000B5BE0000012804D1024B1870002001F0D3
:10469000D1BE7047DA190020012804D10020024B56
:1046A000187001F0D1BE7047DA190020012802D13C
:1046B000002001F0D3BE704700F108034FF0FF3235
:1046C0004360C3600361002382600360704700237E
:1046D0000361704743684B609A688A609A685160CA
:1046E0009960086103680133036070470A68531CCE
:1046F00030B50AD103695A684A6091608B6059608D
:10470000086103680133036030BD00F108035C6891
:104710002568AA42EFD32346F9E742688168036916
:1047200091608268416851605A68904204BF826813
:104730005A6000220261186801381860704738B565
:104740001546026C04465AB905680DB1002003E015
:10475000406800F0A1FF6560A36B0133A36338BD1F
:1047600065B980680CF0F2F9A368226C13446268A2
:104770009342A360EAD32368A360E7E7C0680CF024
:10478000E5F9236CE2685B4221681A448A42E260E0
:104790003EBF62689B18E360022DD7D1A36B002B4C
:1047A000D4D0A36B013BA363D0E7034608461A6C41
:1047B00010B462B1D9685C681144A142D9605DF857
:1047C000044B24BF1968D960D9680CF0BFB95DF8F3
:1047D000044B704738B5044601F084F804F1240511
:1047E000A36C002B12DC4FF0FF3304F11005A3641F
:1047F00001F09EF801F076F8636C002B13DC4FF0AB
:10480000FF336364BDE8384001F092B8636A002B5F
:10481000E9D0284600F062FE08B100F0F1FEA36C7A
:10482000013BA364DCE72369002BE8D0284600F0B5
:1048300055FE08B100F0E4FE636C013B6364DBE706
:104840004FF4A07372B683F31188BFF36F8FBFF379
:104850004F8F62B6FEE7000038B50D46044608B932
:10486000FFF7EEFF01F03EF8206CE36B2268434354
:10487000A260D1181B1A134461600021E3604FF05D
:10488000FF33A1636364A3649DB923696BB104F131
:10489000100000F023FE012807D14FF08052094B91
:1048A0001A60BFF34F8FBFF36F8F01F041F8012003
:1048B00038BD04F11000FFF7FFFE04F12400FFF7FC
:1048C000FBFEF2E704ED00E0F8B50D46174606469C
:1048D00050B94FF4A07372B683F31188BFF36F8F92
:1048E000BFF34F8F62B6FEE791B1484301305430B9
:1048F00000F022FF044688B165B92060E66301211B
:1049000025642046FFF7A8FF84F850702046F8BDC4
:104910000846ECE700F154030360EFE7FFF790FF70
:104920002DE9FF47894601921F46044650B94FF4CE
:10493000A07372B683F31188BFF36F8FBFF34F8FED
:1049400062B6FEE700297ED1036C002B7BD04FF4CA
:10495000A07372B683F31188BFF36F8FBFF34F8FCD
:1049600062B6FEE7002859D100F0E2FF012004B052
:10497000BDE8F087019D1DB900F0DAFF0020F6E7E1
:1049800016B902A800F0EEFD00F0D2FF00F05EFBC9
:1049900000F0A8FF636C013301D1C4F84480A36C1C
:1049A000013301D1C4F8488000F0C2FF01A902A878
:1049B00000F0E8FD002840D100F094FFA66BE56B05
:1049C00000F0B6FFAE4232D1019904F1100000F0C0
:1049D0004BFD2046FFF7FEFE00F0D6FB38B94FF046
:1049E0008053CAF80030BFF34F8FBFF36F8F01269B
:1049F00000F078FFA26BE36B9A4201D3022FB9D18A
:104A00003A4649462046FFF79AFE636A002BA9D032
:104A100004F1240000F062FD0128A5D14FF080527E
:104A2000144B1A60BFF34F8FBFF36F8F9CE7204684
:104A3000FFF7D0FE00F0A8FBD9E72046FFF7CAFE3B
:104A400000F0A2FB9AE7022F02D1E36B012B05D104
:104A500000264FF00008DFF81CA0C9E74FF4A07350
:104A600072B683F31188BFF36F8FBFF34F8F62B6B7
:104A7000FEE700BF04ED00E02DE9F0410E46904650
:104A80001D46044650B94FF4A07372B683F31188E3
:104A9000BFF36F8FBFF34F8F62B6FEE711BB036C9E
:104AA00003B34FF4A07372B683F31188BFF36F8F13
:104AB000BFF34F8F62B6FEE704F1240000F00EFD55
:104AC000002833D0B8F1000F30D00120C8F8000022
:104AD00087F31188BDE8F081A36C0133A36425E05E
:104AE0000020F5E7022D02D1E36B012B20D100F06D
:104AF000E9FFEFF311874FF4A07372B683F31188C7
:104B0000BFF36F8FBFF34F8F62B6A26BE36B9A4216
:104B100001D3022DE4D12A4631462046FFF70FFE8D
:104B2000A36C0133D8D1636A002BC5D10120CFE734
:104B30004FF4A07372B683F31188BFF36F8FBFF386
:104B40004F8F62B6FEE7F8B50E46044650B94FF4F3
:104B5000A07372B683F31188BFF36F8FBFF34F8FCB
:104B600062B6FEE7056C55B14FF4A07372B683F3DD
:104B70001188BFF36F8FBFF34F8F62B6FEE700F06F
:104B8000A1FFEFF311874FF4A07372B683F311887E
:104B9000BFF36F8FBFF34F8F62B6A26BE36B9A4286
:104BA0001AD2A36B0133A363A36C013310D1636AE0
:104BB0000BB9012009E004F1240000F08FFC00286B
:104BC000F7D0002EF5D00120306087F31188F8BDB2
:104BD000A36C0133A364ECE72846F6E72DE9FF4711
:104BE0000E4601929946044650B94FF4A07372B62E
:104BF00083F31188BFF36F8FBFF34F8F62B6FEE769
:104C000019B9036C002B40F08A8000274FF0000890
:104C1000DFF820A100F066FEA36B7BB3314620468F
:104C2000E568FFF7C2FDB9F1000F18D1A36B013B96
:104C3000A363236813B900F073FD60602369BBB1FF
:104C400004F1100000F04AFC012811D14FF080520D
:104C5000384B1A60BFF34F8FBFF36F8F08E0636A62
:104C6000E5602BB104F1240000F038FC0028EDD100
:104C700000F05EFE012004B0BDE8F087019D1DB983
:104C800000F056FE0020F6E717B902A800F06AFC13
:104C900000F04EFE00F0DAF900F024FE636C013300
:104CA00001D1C4F84480A36C013301D1C4F8488019
:104CB00000F03EFE01A902A800F064FC48BB00F031
:104CC00011FEA56B00F034FEEDB9236833B900F096
:104CD00009FE606800F09AFC00F02AFE019904F1D8
:104CE000240000F0C1FB2046FFF774FD00F04CFAF1
:104CF00038B94FF08053CAF80030BFF34F8FBFF37D
:104D00006F8F012786E72046FFF764FD00F03CFA2D
:104D1000F7E72046FFF75EFD00F036FAB2E74FF402
:104D2000A07372B683F31188BFF36F8FBFF34F8FF9
:104D300062B6FEE704ED00E0064A13681968064B08
:104D400019B94FF0FF321A6070471268D268D26802
:104D50005268F8E7E0190020200000200E4B10B543
:104D60001A68044650600D4A1268904207D20C4AF5
:104D700010681968BDE810400431FFF7B7BC094A54
:104D8000106819680431FFF7B1FC074B1A689442A8
:104D900000D21C6010BD00BFDC190020D01A00201A
:104DA000E4190020E0190020200000202DE9F84F30
:104DB0000C9D82460F4616469B46DDF8288035B985
:104DC000900000F0B9FC0546002800F0AA805C20A5
:104DD00000F0B2FC0446002800F0A080B600056395
:104DE000A52128463246043E0BF04AFF236B04F10E
:104DF00034021E447B1E093726F00706597802F854
:104E0000011B13F8011F09B19F42F7D1B8F1040F3C
:104E10004FF00005C14604F1040728BF4FF0040914
:104E200084F83D503846E564C4F82C90C4F84890A6
:104E3000FFF74DFC04F11800FFF749FCC9F1050329
:104E400065655A46A3615146246130466462256512
:104E500084F8585000F026FD0B9B206003B11C60C5
:104E600000F040FD354B364D1A68364E01321A605F
:104E70002A68002A58D12C601B68012B27D13248A0
:104E8000FFF71AFC3148FFF717FC3148FFF714FC15
:104E9000DFF8E8A02F48FFF70FFCDFF8E4902E487A
:104EA000FFF70AFC5046FFF707FC4846FFF704FCF3
:104EB0002A48FFF701FC2A48FFF7FEFB2948FFF7C5
:104EC000FBFB294BC3F800A0284BC3F80090284AED
:104ED000284913680868013313602364E26A0124D7
:104EE00004FA02F3034314200B603946164B00FB0F
:104EF0000230FFF7EFFB00F01BFD33685BB12B685E
:104F0000DB6A984507D94FF080521B4B1A60BFF3FC
:104F10004F8FBFF36F8F2046BDE8F88F284600F013
:104F200069FC4FF0FF34F6E73368002BCFD12B68D4
:104F3000DB6A9845CBD32C60C9E700BF4C1A002030
:104F4000DC190020A41A0020E8190020FC19002018
:104F5000101A0020241A0020381A0020901A00206D
:104F6000BC1A0020A81A0020E0190020E419002033
:104F7000581A0020601A002004ED00E0641A002096
:104F8000781A00204FF4A07372B683F31188BFF330
:104F90006F8FBFF34F8F62B6FEE770B403AC70CC77
:104FA00050B94FF4A07372B683F31188BFF36F8FBB
:104FB000BFF34F8F62B6FEE7042C0AD94FF4A073FB
:104FC00072B683F31188BFF36F8FBFF34F8F62B652
:104FD000FEE705960495039470BCFFF7E7BE00005A
:104FE0001FB50024402215490294234601940094E1
:104FF0001348FFF7DBFE012812D14FF4A07372B6FD
:1050000083F31188BFF36F8FBFF34F8F62B60D4BE1
:1050100018600D4B1C6004B0BDE8104000F0FEBCF1
:1050200050B94FF4A07372B683F31188BFF36F8F3A
:10503000BFF34F8F62B6FEE704B010BD48280108E9
:10504000FD520008A41A0020D01A0020024A13685A
:1050500001331360704700BF541A00202DE9F84F48
:105060003E4B1B68002B56D13D4B1A6801321A602B
:105070001D68CDB93B4B1A68126852B14FF4A0734A
:1050800072B683F31188BFF36F8FBFF34F8F62B691
:10509000FEE7354A1968106818601160334A1368D2
:1050A00001331360FFF748FE314C4FF0000B314FD6
:1050B00023689D423ED3DFF8AC80DFF8C890D8F873
:1050C0000020126872BB4FF0FF32226032E006F11E
:1050D000040A5046FFF721FBB16A19B106F1180026
:1050E000FFF71BFBF06A0122D9F800304FF0140ED5
:1050F00002FA00F11943204BC9F8001051460EFB8B
:105100000030FFF7E7FA3868F16AC26A914228BFB7
:105110004FF0010BD3E7194A4FF0000B136801332E
:10512000136011E0D8F80020D268D66871688D420B
:10513000CDD221603A68104BD16A14224A439A5862
:10514000022A28BF4FF0010B0D4A1268002A18BF2F
:105150004FF0010B5846BDE8F88F00BF541A0020ED
:10516000D01A0020E0190020E41900208C1A002039
:1051700020000020DC190020E8190020501A00202F
:10518000D41A0020601A00202DE9F843324C23681D
:1051900053B94FF4A07372B683F31188BFF36F8FC6
:1051A000BFF34F8F62B6FEE700F09CFB2368013B24
:1051B000236023682BB1002400F0BAFB2046BDE831
:1051C000F883264B1B68002BF5D0254D254E1FE09C
:1051D000EB680127DC6804F1040904F11800FFF70B
:1051E0009CFA4846FFF799FAE26A3168142007FAF8
:1051F00002F300FB02800B4349463360FFF76AFA73
:10520000194BE26A1B68DB6A9A4203D3174B1F6093
:10521000DFF864802B68002BDAD1154C2368BBB90A
:10522000124B1C68012CC6D14FF08052114B1A60F2
:10523000BFF34F8FBFF36F8FBEE7FFF70FFF00B1D4
:105240002E602368013B23602368002BF5D1E7E73C
:10525000064D0126F8E700BF541A00204C1A002022
:10526000901A0020601A0020DC190020D41A0020B7
:10527000501A002004ED00E0E819002038B540B9CC
:105280004FF08052184B1A60BFF34F8FBFF36F8FF0
:1052900038BD164B1B6853B14FF4A07372B683F33D
:1052A0001188BFF36F8FBFF34F8F62B6FEE7FFF732
:1052B000CDFE0F4B0F4D1C68044428680430FFF7E7
:1052C0002CFA40B92A680C49D06A01220B68824046
:1052D00023EA02030B602046FFF740FDFFF754FF6F
:1052E0000028CDD038BD00BF04ED00E0541A0020E6
:1052F000D01A0020DC190020601A0020184E08B5D2
:10530000184C236873B9184B1B68012B07D94FF051
:105310008052164B1A60BFF34F8FBFF36F8FFEF7AB
:1053200087F9EDE7FFF792FE3568FFF72DFF002DB7
:10533000E7D000F0D7FAF368DD68281DFFF7EDF934
:105340000B4A1368013B13602368013B236000F0A4
:10535000EFFA286B00F04EFA284600F04BFAD0E73F
:10536000BC1A00205C1A0020E819002004ED00E0BF
:105370004C1A002038B50D4640B9054B1C6800F0AA
:10538000B1FA2565BDE8384000F0D2BA0446F6E728
:10539000DC19002008B9044B1868036D0BB10846EE
:1053A00018471846704700BFDC19002038B5284B55
:1053B0001A68284B12B101221A6038BD264C01210F
:1053C0001A602068FFF7E6FF2268236812681B6BEB
:1053D0009A4204D8206821683431FEF727F92368FF
:1053E00014221E49186B0BF081FB20B12068216844
:1053F0003431FEF71BF91A4B1B68B3FA83F3DBB2A7
:1054000014221849C3F11F035A438D58881855B9FF
:105410004FF4A07372B683F31188BFF36F8FBFF39D
:105420004F8F62B6FEE7456808326D680A449542C0
:10543000456004BF6A684260142202FB0313002126
:105440005B68DB6823602068BDE83840FFF7A2BFD7
:10545000541A0020D41A0020DC1900203428010836
:10546000601A0020E819002038B50D4650B94FF4F5
:10547000A07372B683F31188BFF36F8FBFF34F8FA2
:1054800062B6FEE7114C21681831FFF72FF920684A
:105490000430FFF742F940B922680D49D06A012271
:1054A0000B68824023EA02030B606B1C06D1216863
:1054B00008480431BDE83840FFF70CB9064B1868BE
:1054C0002844BDE83840FFF749BC00BFDC19002084
:1054D000601A0020A81A0020D01A002038B5C3682E
:1054E000DC6854B94FF4A07372B683F31188BFF32C
:1054F0006F8FBFF34F8F62B6FEE704F118052846A1
:10550000FFF70BF9114B1B68DBB9251D2846FFF788
:1055100004F90F49E26A0123086893400343142009
:105520000B6029460B4B00FB0230FFF7D3F80A4B08
:10553000E26A1B68DB6A9A4206D90120074B1860B1
:1055400038BD29460648F0E7002038BD541A00202F
:10555000601A0020E8190020DC190020D41A00206D
:10556000901A002008B508B9FFF70CFD034B1B6823
:105570000360034B1B68436008BD00BF8C1A00200A
:10558000D01A002038B50D46044650B94FF4A07328
:1055900072B683F31188BFF36F8FBFF34F8F62B67C
:1055A000FEE751B94FF4A07372B683F31188BFF3CD
:1055B0006F8FBFF34F8F62B6FEE700F093F90E4B8B
:1055C00019682B685A1C10D00C4A20681268904247
:1055D000626801D091420DD2881A83420AD95B1ABF
:1055E000204613442B60FFF7BDFF002400F0A0F914
:1055F000204638BD0124F9E7D01A00208C1A00207B
:105600000122014B1A607047D41A00202DE9F041A5
:105610000446002838D01D4DC36A2A68D26A9342D6
:1056200032D28269002A04DB2A68D26AC2F10502FA
:105630008261174E1427626907FB03639A4220D1E7
:1056400004F104084046FFF768F8124A48B9E06AD6
:105650004743F3592BB901211368814023EA010321
:1056600013602B681168D86A01238340E0620B4302
:1056700041461360142303FB0060BDE8F041FFF7CF
:1056800029B82B68DB6AE362BDE8F081DC190020F1
:10569000E8190020601A0020F8B5044608B9002077
:1056A000F8BDC36C53B94FF4A07372B683F311887D
:1056B000BFF36F8FBFF34F8F62B6FEE7C16A013B46
:1056C000826CC3649142EAD0002BE8D1051D124ED2
:1056D0002846FFF722F8114A50B9E76A14217943A6
:1056E00073582BB901201368B84023EA00031360F4
:1056F000A36CC3F10501E362A1610124116804FAFE
:1057000003F0084329461060142000FB0360FEF7F5
:10571000E1FF2046F8BD00BFE8190020601A002014
:10572000044B1A681AB11968CA6C0132CA64186845
:10573000704700BFDC19002070B50446FFF786FCF7
:105740002748016871B9274B41F60C65264A23F0BA
:10575000070351601360254A83E82400012382E88F
:10576000220003602CB1083463071CBF24F0070437
:105770000834621E41F60A639A4207D81A4A13682F
:1057800059688C4204D819498B4207D100251DE085
:1057900019680029F7D01A460B46F1E71968156811
:1057A000116059680835091B10290AD91A19516066
:1057B0005C600D49566808684468A6420DD81060C0
:1057C0000A600B495B680A68D21A0A60FFF7DCFCC2
:1057D0000DB9FDF72CFF284670BD0146EBE700BF71
:1057E000F4380020E01A0020F8380020EC380020BF
:1057F0002400002038B50446C8B1A0F10805FFF721
:1058000025FC54F8040C0A4B1A68516888420CD8DD
:1058100044F8082C074A1D60116854F8043C0B44F6
:105820001360BDE83840FFF7AFBC1346ECE738BD66
:10583000F8380020240000200C4B1B6801330AD0EC
:105840004FF4A07372B683F31188BFF36F8FBFF369
:105850004F8F62B6FEE74FF4A07372B683F31188E0
:10586000BFF36F8FBFF34F8F62B6FEE728000020B3
:1058700006480068006880F3088862B661B6BFF326
:105880004F8FBFF36F8F00DF00BF000008ED00E017
:10589000DFF80C00016841F47001016070470000FE
:1058A00088ED00E04FF0807340F8202C00E90A00FA
:1058B000034B443883636FF002030362704700BFF9
:1058C00039580008064B19680868B0E8F04F80F3B3
:1058D0000988BFF36F8F4FF0000080F31188704785
:1058E000DC1900204FF4A07372B683F31188BFF364
:1058F0006F8FBFF34F8F62B60B4A13680133012BD2
:1059000013600FD1094B1B6813F0FF0F0AD04FF43F
:10591000A07372B683F31188BFF36F8FBFF34F8FFD
:1059200062B6FEE7704700BF2800002004ED00E0EB
:10593000094A136853B94FF4A07372B683F3118800
:10594000BFF36F8FBFF34F8F62B6FEE7013B13606B
:105950000BB983F31188704728000020EFF309800A
:10596000BFF36F8F154B1A681EF0100F08BF20EDA4
:10597000108A20E9F04F10604DF8043D4FF4A070FC
:1059800072B680F31188BFF34F8FBFF36F8F62B68B
:10599000FFF70CFD4FF0000080F3118808BC196878
:1059A0000868B0E8F04F1EF0100F08BFB0EC108A86
:1059B00080F30988BFF36F8F704700BFDC190020A8
:1059C00008B5EFF311834FF4A07272B682F3118819
:1059D000BFF36F8FBFF34F8F62B6FFF73FFB18B176
:1059E0004FF08052024B1A60002383F3118808BDE8
:1059F00004ED00E0064B4FF47A721B68B3FBF2F340
:105A0000044A013B13600722034B1A60704700BF32
:105A10006400002014E000E010E000E0234B13B528
:105A20001A780021D2B20192FF221A701B78204A04
:105A3000DBB28DF803309DF8033003F040031370A0
:105A400007221C4B1A609DF80300541E000623D445
:105A500001B11A601A68120202F4E0621A60019B36
:105A6000124ADBB21370144B1A6842F47C021A60BB
:105A70001A6842F07C421A60FFF7BCFF00220F4B0D
:105A80001A60FFF705FF0E4A136843F040431360A6
:105A9000FFF7EEFEFFF7D0FE9DF803200121520034
:105AA000D2B28DF803202246CDE700BF00E400E02B
:105AB000003900200439002020ED00E028000020FB
:105AC00034EF00E0EFF305830F2B10D9124A9B5CF3
:105AD000124A12789A420AD94FF4A07372B683F32D
